{
  "contractName": "BasicToken",
  "abi": [
    {
      "constant": true,
      "inputs": [],
      "name": "totalSupply",
      "outputs": [
        {
          "name": "",
          "type": "uint256"
        }
      ],
      "payable": false,
      "stateMutability": "view",
      "type": "function"
    },
    {
      "constant": true,
      "inputs": [
        {
          "name": "_owner",
          "type": "address"
        }
      ],
      "name": "balanceOf",
      "outputs": [
        {
          "name": "balance",
          "type": "uint256"
        }
      ],
      "payable": false,
      "stateMutability": "view",
      "type": "function"
    },
    {
      "constant": false,
      "inputs": [
        {
          "name": "_to",
          "type": "address"
        },
        {
          "name": "_value",
          "type": "uint256"
        }
      ],
      "name": "transfer",
      "outputs": [
        {
          "name": "",
          "type": "bool"
        }
      ],
      "payable": false,
      "stateMutability": "nonpayable",
      "type": "function"
    },
    {
      "anonymous": false,
      "inputs": [
        {
          "indexed": true,
          "name": "from",
          "type": "address"
        },
        {
          "indexed": true,
          "name": "to",
          "type": "address"
        },
        {
          "indexed": false,
          "name": "value",
          "type": "uint256"
        }
      ],
      "name": "Transfer",
      "type": "event"
    }
  ],
  "bytecode": "0x6060604052341561000f57600080fd5b6104008061001e6000396000f300606060405260043610610057576000357c0100000000000000000000000000000000000000000000000000000000900463ffffffff16806318160ddd1461005c57806370a0823114610085578063a9059cbb146100d2575b600080fd5b341561006757600080fd5b61006f61012c565b6040518082815260200191505060405180910390f35b341561009057600080fd5b6100bc600480803573ffffffffffffffffffffffffffffffffffffffff16906020019091905050610136565b6040518082815260200191505060405180910390f35b34156100dd57600080fd5b610112600480803573ffffffffffffffffffffffffffffffffffffffff1690602001909190803590602001909190505061017e565b604051808215151515815260200191505060405180910390f35b6000600154905090565b60008060008373ffffffffffffffffffffffffffffffffffffffff1673ffffffffffffffffffffffffffffffffffffffff168152602001908152602001600020549050919050565b60008073ffffffffffffffffffffffffffffffffffffffff168373ffffffffffffffffffffffffffffffffffffffff16141515156101bb57600080fd5b6000803373ffffffffffffffffffffffffffffffffffffffff1673ffffffffffffffffffffffffffffffffffffffff16815260200190815260200160002054821115151561020857600080fd5b610259826000803373ffffffffffffffffffffffffffffffffffffffff1673ffffffffffffffffffffffffffffffffffffffff1681526020019081526020016000205461039d90919063ffffffff16565b6000803373ffffffffffffffffffffffffffffffffffffffff1673ffffffffffffffffffffffffffffffffffffffff168152602001908152602001600020819055506102ec826000808673ffffffffffffffffffffffffffffffffffffffff1673ffffffffffffffffffffffffffffffffffffffff168152602001908152602001600020546103b690919063ffffffff16565b6000808573ffffffffffffffffffffffffffffffffffffffff1673ffffffffffffffffffffffffffffffffffffffff168152602001908152602001600020819055508273ffffffffffffffffffffffffffffffffffffffff163373ffffffffffffffffffffffffffffffffffffffff167fddf252ad1be2c89b69c2b068fc378daa952ba7f163c4a11628f55a4df523b3ef846040518082815260200191505060405180910390a36001905092915050565b60008282111515156103ab57fe5b818303905092915050565b60008082840190508381101515156103ca57fe5b80915050929150505600a165627a7a72305820bbda35d6691348ccaee63865031318066c8611841b7c0c5ddb03a16633df58190029",
  "source": "pragma solidity ^0.4.18;\n\n/**\n * @title SafeMath\n * @dev Math operations with safety checks that throw on error\n */\nlibrary SafeMath {\n\n\t/**\n\t* @dev Multiplies two numbers, throws on overflow.\n\t*/\n\tfunction mul(uint256 a, uint256 b) internal pure returns (uint256) {\n\t\tif (a == 0) {\n\t\t\treturn 0;\n\t\t}\n\t\tuint256 c = a * b;\n\t\tassert(c / a == b);\n\t\treturn c;\n\t}\n\n\t/**\n\t* @dev Integer division of two numbers, truncating the quotient.\n\t*/\n\tfunction div(uint256 a, uint256 b) internal pure returns (uint256) {\n\t\t// assert(b > 0); // Solidity automatically throws when dividing by 0\n\t\tuint256 c = a / b;\n\t\t// assert(a == b * c + a % b); // There is no case in which this doesn't hold\n\t\treturn c;\n\t}\n\n\t/**\n\t* @dev Substracts two numbers, throws on overflow (i.e. if subtrahend is greater than minuend).\n\t*/\n\tfunction sub(uint256 a, uint256 b) internal pure returns (uint256) {\n\t\tassert(b <= a);\n\t\treturn a - b;\n\t}\n\n\t/**\n\t* @dev Adds two numbers, throws on overflow.\n\t*/\n\tfunction add(uint256 a, uint256 b) internal pure returns (uint256) {\n\t\tuint256 c = a + b;\n\t\tassert(c >= a);\n\t\treturn c;\n\t}\n}\n\n/**\n * @title Ownable\n * @dev The Ownable contract has an owner address, and provides basic authorization control\n * functions, this simplifies the implementation of \"user permissions\".\n */\ncontract Ownable {\n\taddress public owner;\n\n\tevent OwnershipTransferred(address indexed previousOwner, address indexed newOwner);\n\n\t/**\n\t * @dev The Ownable constructor sets the original `owner` of the contract to the sender\n\t * account.\n\t */\n\tfunction Ownable() public {\n\t\towner = msg.sender;\n\t}\n\n\t/**\n\t * @dev Throws if called by any account other than the owner.\n\t */\n\tmodifier onlyOwner() {\n\t\trequire(msg.sender == owner);\n\t\t_;\n\t}\n\n\t/**\n\t * @dev Allows the current owner to transfer control of the contract to a newOwner.\n\t * @param newOwner The address to transfer ownership to.\n\t */\n\tfunction transferOwnership(address newOwner) public onlyOwner {\n\t\trequire(newOwner != address(0));\n\t\tOwnershipTransferred(owner, newOwner);\n\t\towner = newOwner;\n\t}\n\n}\n\n/**\n * @title ERC20Basic\n * @dev Simpler version of ERC20 interface\n * @dev see https://github.com/ethereum/EIPs/issues/179\n */\ncontract ERC20Basic {\n\tfunction totalSupply() public view returns (uint256);\n\tfunction balanceOf(address who) public view returns (uint256);\n\tfunction transfer(address to, uint256 value) public returns (bool);\n\tevent Transfer(address indexed from, address indexed to, uint256 value);\n}\n\n/**\n * @title ERC20 interface\n * @dev see https://github.com/ethereum/EIPs/issues/20\n */\ncontract ERC20 is ERC20Basic {\n\tfunction allowance(address owner, address spender) public view returns (uint256);\n\tfunction transferFrom(address from, address to, uint256 value) public returns (bool);\n\tfunction approve(address spender, uint256 value) public returns (bool);\n\tevent Approval(address indexed owner, address indexed spender, uint256 value);\n}\n\n\n/**\n * @title Basic token\n * @dev Basic version of StandardToken, with no allowances.\n */\ncontract BasicToken is ERC20Basic {\n\tusing SafeMath for uint256;\n\n\tmapping(address => uint256) balances;\n\n\tuint256 totalSupply_;\n\n\t/**\n\t* @dev total number of tokens in existence\n\t*/\n\tfunction totalSupply() public view returns (uint256) {\n\t\treturn totalSupply_;\n\t}\n\n\t/**\n\t* @dev transfer token for a specified address\n\t* @param _to The address to transfer to.\n\t* @param _value The amount to be transferred.\n\t*/\n\tfunction transfer(address _to, uint256 _value) public returns (bool) {\n\t\trequire(_to != address(0));\n\t\trequire(_value <= balances[msg.sender]);\n\n\t\t// SafeMath.sub will throw if there is not enough balance.\n\t\tbalances[msg.sender] = balances[msg.sender].sub(_value);\n\t\tbalances[_to] = balances[_to].add(_value);\n\t\tTransfer(msg.sender, _to, _value);\n\t\treturn true;\n\t}\n\n\t/**\n\t* @dev Gets the balance of the specified address.\n\t* @param _owner The address to query the the balance of.\n\t* @return An uint256 representing the amount owned by the passed address.\n\t*/\n\tfunction balanceOf(address _owner) public view returns (uint256 balance) {\n\t\treturn balances[_owner];\n\t}\n\n}\n\n\n/**\n * @title Standard ERC20 token\n *\n * @dev Implementation of the basic standard token.\n * @dev https://github.com/ethereum/EIPs/issues/20\n * @dev Based on code by FirstBlood: https://github.com/Firstbloodio/token/blob/master/smart_contract/FirstBloodToken.sol\n */\ncontract StandardToken is ERC20, BasicToken {\n\n\tmapping (address => mapping (address => uint256)) internal allowed;\n\n\n\t/**\n\t * @dev Transfer tokens from one address to another\n\t * @param _from address The address which you want to send tokens from\n\t * @param _to address The address which you want to transfer to\n\t * @param _value uint256 the amount of tokens to be transferred\n\t */\n\tfunction transferFrom(address _from, address _to, uint256 _value) public returns (bool) {\n\t\trequire(_to != address(0));\n\t\trequire(_value <= balances[_from]);\n\t\trequire(_value <= allowed[_from][msg.sender]);\n\n\t\tbalances[_from] = balances[_from].sub(_value);\n\t\tbalances[_to] = balances[_to].add(_value);\n\t\tallowed[_from][msg.sender] = allowed[_from][msg.sender].sub(_value);\n\t\tTransfer(_from, _to, _value);\n\t\treturn true;\n\t}\n\n\t/**\n\t * @dev Approve the passed address to spend the specified amount of tokens on behalf of msg.sender.\n\t *\n\t * Beware that changing an allowance with this method brings the risk that someone may use both the old\n\t * and the new allowance by unfortunate transaction ordering. One possible solution to mitigate this\n\t * race condition is to first reduce the spender's allowance to 0 and set the desired value afterwards:\n\t * https://github.com/ethereum/EIPs/issues/20#issuecomment-263524729\n\t * @param _spender The address which will spend the funds.\n\t * @param _value The amount of tokens to be spent.\n\t */\n\tfunction approve(address _spender, uint256 _value) public returns (bool) {\n\t\tallowed[msg.sender][_spender] = _value;\n\t\tApproval(msg.sender, _spender, _value);\n\t\treturn true;\n\t}\n\n\t/**\n\t * @dev Function to check the amount of tokens that an owner allowed to a spender.\n\t * @param _owner address The address which owns the funds.\n\t * @param _spender address The address which will spend the funds.\n\t * @return A uint256 specifying the amount of tokens still available for the spender.\n\t */\n\tfunction allowance(address _owner, address _spender) public view returns (uint256) {\n\t\treturn allowed[_owner][_spender];\n\t}\n\n\t/**\n\t * @dev Increase the amount of tokens that an owner allowed to a spender.\n\t *\n\t * approve should be called when allowed[_spender] == 0. To increment\n\t * allowed value is better to use this function to avoid 2 calls (and wait until\n\t * the first transaction is mined)\n\t * From MonolithDAO Token.sol\n\t * @param _spender The address which will spend the funds.\n\t * @param _addedValue The amount of tokens to increase the allowance by.\n\t */\n\tfunction increaseApproval(address _spender, uint _addedValue) public returns (bool) {\n\t\tallowed[msg.sender][_spender] = allowed[msg.sender][_spender].add(_addedValue);\n\t\tApproval(msg.sender, _spender, allowed[msg.sender][_spender]);\n\t\treturn true;\n\t}\n\n\t/**\n\t * @dev Decrease the amount of tokens that an owner allowed to a spender.\n\t *\n\t * approve should be called when allowed[_spender] == 0. To decrement\n\t * allowed value is better to use this function to avoid 2 calls (and wait until\n\t * the first transaction is mined)\n\t * From MonolithDAO Token.sol\n\t * @param _spender The address which will spend the funds.\n\t * @param _subtractedValue The amount of tokens to decrease the allowance by.\n\t */\n\tfunction decreaseApproval(address _spender, uint _subtractedValue) public returns (bool) {\n\t\tuint oldValue = allowed[msg.sender][_spender];\n\t\tif (_subtractedValue > oldValue) {\n\t\t\tallowed[msg.sender][_spender] = 0;\n\t\t} else {\n\t\t\tallowed[msg.sender][_spender] = oldValue.sub(_subtractedValue);\n\t\t}\n\t\tApproval(msg.sender, _spender, allowed[msg.sender][_spender]);\n\t\treturn true;\n\t}\n\n}\n\n/**\n * @title Sebastian\n * @dev Very simple ERC20 Token example, where all tokens are pre-assigned to the creator.\n * Note they can later distribute these tokens as they wish using `transfer` and other\n * `StandardToken` functions.\n */\ncontract SebastianToken is StandardToken, Ownable {\n\tusing SafeMath for uint256;\n\n\tstring public name = \"Sebastian\";\n\tstring public symbol = \"SEB\";\n\tuint256 public decimals = 5;\n\n\tuint256 public totalSupply = 1000000000 * (10 ** uint256(decimals));\n\n\t/**\n\t * @dev Constructor that gives msg.sender all of existing tokens.\n\t */\n\tfunction SebastianToken(string _name, string _symbol, uint256 _decimals, uint256 _totalSupply) public {\n\t\tname = _name;\n\t\tsymbol = _symbol;\n\t\tdecimals = _decimals;\n\t\ttotalSupply = _totalSupply;\n\n\t\ttotalSupply_ = _totalSupply;\n\t\tbalances[msg.sender] = totalSupply;\n\t}\n\n\t/**\n\t * @dev if ether is sent to this address, send it back.\n\t */\n\tfunction () public payable {\n\t\trevert();\n\t}\n}\n\n/**\n * @title SebastianTokenSale\n * @dev ICO Contract\n */\ncontract SebastianTokenSale is Ownable {\n\n\tusing SafeMath for uint256;\n\n\t// The token being sold, this holds reference to main token contract\n\tSebastianToken public token;\n\n\t// timestamp when sale starts\n\tuint256 public startingTimestamp = 1518696000;\n\n\t// timestamp when sale ends\n\tuint256 public endingTimestamp = 1521115200;\n\n\t// how many token units a buyer gets per ether\n\tuint256 public tokenPriceInEth = 0.0001 ether;\n\n\t// amount of token to be sold on sale\n\tuint256 public tokensForSale = 400000000 * 1E5;\n\n\t// amount of token sold so far\n\tuint256 public totalTokenSold;\n\n\t// amount of ether raised in sale\n\tuint256 public totalEtherRaised;\n\n\t// ether raised per wallet\n\tmapping(address => uint256) public etherRaisedPerWallet;\n\n\t// wallet which will receive the ether funding\n\taddress public wallet;\n\n\t// is contract close and ended\n\tbool internal isClose = false;\n\n\t// wallet changed\n\tevent WalletChange(address _wallet, uint256 _timestamp);\n\n\t// token purchase event\n\tevent TokenPurchase(address indexed _purchaser, address indexed _beneficiary, uint256 _value, uint256 _amount, uint256 _timestamp);\n\n\t// manual transfer by owner for external purchase\n\tevent TransferManual(address indexed _from, address indexed _to, uint256 _value, string _message);\n\n\t/**\n\t * @dev Constructor that initializes token contract with token address in parameter\n\t *\n\t * @param _token Address of Token Contract\n\t * @param _startingTimestamp Start time of Sale in Timestamp.\n\t * @param _endingTimestamp End time of Sale in Timestamp.\n\t * @param _tokensPerEth Number of Tokens to convert per 1 ETH.\n\t * @param _tokensForSale Number of Tokens available for sale.\n\t * @param _wallet Backup Wallet Address where funds should be transfered when contract is closed or Owner wants to Withdraw.\n\t *\n\t */\n\tfunction SebastianTokenSale(address _token, uint256 _startingTimestamp, uint256 _endingTimestamp, uint256 _tokensPerEth, uint256 _tokensForSale, address _wallet) public {\n\t\t// set token\n\t\ttoken = SebastianToken(_token);\n\n\t\tstartingTimestamp = _startingTimestamp;\n\t\tendingTimestamp = _endingTimestamp;\n\t\ttokenPriceInEth =  1E18 / _tokensPerEth; // Calculating Price of 1 Token in ETH \n\t\ttokensForSale = _tokensForSale;\n\n\t\t// set wallet\n\t\twallet = _wallet;\n\t}\n\n\t/**\n\t * @dev Function that validates if the purchase is valid by verifying the parameters\n\t *\n\t * @param value Amount of ethers sent\n\t * @param amount Total number of tokens user is trying to buy.\n\t *\n\t * @return checks various conditions and returns the bool result indicating validity.\n\t */\n\tfunction isValidPurchase(uint256 value, uint256 amount) internal constant returns (bool) {\n\t\t// check if timestamp is falling in the range\n\t\tbool validTimestamp = startingTimestamp <= block.timestamp && endingTimestamp >= block.timestamp;\n\n\t\t// check if value of the ether is valid\n\t\tbool validValue = value != 0;\n\n\t\t// check if rate of the token is clearly defined\n\t\tbool validRate = tokenPriceInEth > 0;\n\n\t\t// check if the tokens available in contract for sale\n\t\tbool validAmount = tokensForSale.sub(totalTokenSold) >= amount && amount > 0;\n\n\t\t// validate if all conditions are met\n\t\treturn validTimestamp && validValue && validRate && validAmount && !isClose;\n\t}\n\n\t\n\t/**\n\t * @dev Function that accepts ether value and returns the token amount\n\t *\n\t * @param value Amount of ethers sent\n\t *\n\t * @return checks various conditions and returns the bool result indicating validity.\n\t */\n\tfunction calculate(uint256 value) public constant returns (uint256) {\n\t\tuint256 tokenDecimals = token.decimals();\n\t\tuint256 tokens = value.mul(10 ** tokenDecimals).div(tokenPriceInEth);\n\t\treturn tokens;\n\t}\n\t\n\t/**\n\t * @dev Default fallback method which will be called when any ethers are sent to contract\n\t */\n\tfunction() public payable {\n\t\tbuyTokens(msg.sender);\n\t}\n\n\t/**\n\t * @dev Function that is called either externally or by default payable method\n\t *\n\t * @param beneficiary who should receive tokens\n\t */\n\tfunction buyTokens(address beneficiary) public payable {\n\t\trequire(beneficiary != address(0));\n\n\t\t// amount of ethers sent\n\t\tuint256 value = msg.value;\n\n\t\t// calculate token amount from the ethers sent\n\t\tuint256 tokens = calculate(value);\n\n\t\t// validate the purchase\n\t\trequire(isValidPurchase(value , tokens));\n\n\t\t// update the state to log the sold tokens and raised ethers.\n\t\ttotalTokenSold = totalTokenSold.add(tokens);\n\t\ttotalEtherRaised = totalEtherRaised.add(value);\n\t\tetherRaisedPerWallet[msg.sender] = etherRaisedPerWallet[msg.sender].add(value);\n\n\t\t// transfer tokens from contract balance to beneficiary account. calling ERC223 method\n\t\ttoken.transfer(beneficiary, tokens);\n\t\t\n\t\t// log event for token purchase\n\t\tTokenPurchase(msg.sender, beneficiary, value, tokens, now);\n\t}\n\n\t/**\n\t* @dev transmit token for a specified address. \n\t* This is owner only method and should be called using web3.js if someone is trying to buy token using bitcoin or any other altcoin.\n\t* \n\t* @param _to The address to transmit to.\n\t* @param _value The amount to be transferred.\n\t* @param _message message to log after transfer.\n\t*/\n\tfunction transferManual(address _to, uint256 _value, string _message) onlyOwner public returns (bool) {\n\t\trequire(_to != address(0));\n\n\t\t// transfer tokens manually from contract balance\n\t\ttoken.transfer(_to , _value);\n\t\tTransferManual(msg.sender, _to, _value, _message);\n\t\treturn true;\n\t}\n\n\t/**\n\t* @dev withdraw funds \n\t* This will set the withdrawal wallet\n\t* \n\t* @param _wallet The address to transmit to.\n\t*/\t\n\tfunction setWallet(address _wallet) onlyOwner public returns(bool) {\n\t\t// set wallet \n\t\twallet = _wallet;\n\t\tWalletChange(_wallet , now);\n\t\treturn true;\n\t}\n\n\t/**\n\t* @dev Method called by owner of contract to withdraw funds\n\t*/\n\tfunction withdraw() onlyOwner public {\n\t\twallet.transfer(this.balance);\n\t}\n\n\t/**\n\t* @dev close contract \n\t* This will send remaining token balance to owner\n\t* This will distribute available funds across team members\n\t*/\t\n\tfunction close() onlyOwner public {\n\t\t// send remaining tokens back to owner.\n\t\tuint256 tokens = token.balanceOf(this); \n\t\ttoken.transfer(owner , tokens);\n\n\t\t// withdraw funds \n\t\twithdraw();\n\n\t\t// mark the flag to indicate closure of the contract\n\t\tisClose = true;\n\t}\n}",
  "sourcePath": "/Work/Blockchain Development/Ethereum Smart Contracts/Sebastian/contracts/SebastianToken.sol",
  "compiler": {
    "name": "solc",
    "version": "0.4.18+commit.9cf6e910.Emscripten.clang"
  },
  "schemaVersion": "1.0.1",
  "updatedAt": "2018-01-29T15:00:44.990Z"
}